:0400000014EF0BF0FE
:100F000000D016901682164C101011C61642120A06
:100F1000170217FA16F216EA16E216DA16BC16BE11
:100F200012003AEC0BF0300E146E310E156E320ECC
:100F3000166E000E286E080E296E420E2A6E500E96
:100F4000DBEC08F0E806D8B4A8EF07F0AAEF07F04A
:100F50009FEF07F0280E016E026A000E046E030E6A
:100F6000036EE9EC0AF0000EF6EC09F0AFEC0AF0C3
:100F7000E806D8B4BEEF07F0C0EF07F0B6EF07F011
:100F8000210E126E760EE82EFED7122EFCD700D060
:100F9000500EDBEC08F0E806D8B4D1EF07F0D3EF41
:100FA00007F0C8EF07F0280E016E026A000E046E0B
:100FB000020E036EE9EC0AF0000EF6EC09F02B0EBF
:100FC000016E026A000E046E010E036EE9EC0AF077
:100FD000010EF6EC09F0AFEC0AF0E806D8B4F3EF36
:100FE00007F0F5EF07F0EBEF07F01A0E136E3D0E6A
:100FF000126EF70EE82EFED7122EFCD7132EFAD75C
:101000000000280EDBEC08F0E806D8B40AEF08F080
:101010000CEF08F001EF08F02B0E016E026A000ED3
:10102000046E010E036EE9EC0AF0000EF6EC09F016
:10103000AFEC0AF0E806D8B420EF08F022EF08F091
:1010400018EF08F09FEF07F000EF00F01FEC0BF037
:101050000009D8B42EEF08F030EF08F06DEF08F07B
:101060003EEF08F085EC0BF087EF08F081EC0BF019
:1010700087EF08F079EC0BF087EF08F03EC00AF03C
:101080003FC00BF020EE32F002D851EF08F005001F
:10109000FA6EDE50FD6EDE50FE6EF850FF6EFA50B6
:1010A00012000D6E0E6A0E50000AD8B45AEF08F006
:1010B0003AEF08F00D50010AD8B43AEF08F0030AED
:1010C000D8B432EF08F0010AD8B436EF08F0070AB6
:1010D000D8B43AEF08F03AEF08F04F9049C0D9FF82
:1010E0004AC0DAFF494A4A2ADF5089EC0BF04B0626
:1010F000D8A04C064B504C10D8A481EF08F083EFD9
:1011000008F086EF08F0060E87EF08F0030E1200D5
:1011100095EC0BF049C0D9FF4AC0DAFFDF6E494AAF
:101120004A2A4B06D8A04C064B504C10D8B49BEF23
:1011300008F09DEF08F0A2EF08F08DEC0BF0050E23
:10114000DAEF08F04F86ADEF08F06DEC0BF0DAEF58
:1011500008F071EC0BF0DAEF08F038C00AF039C093
:101160000BF002D8BEEF08F00500FA6E2C50FD6EB1
:101170002D50FE6EF850FF6EFA5012000D6E0E6A82
:101180000E50000AD8B4C7EF08F0A9EF08F00D50D0
:10119000010AD8B4A9EF08F0030AD8B4A5EF08F003
:1011A000010AD8B4A5EF08F0070AD8B4A9EF08F0EF
:1011B000A9EF08F01200016E010E026E4FB4E3EFCA
:1011C00008F0E5EF08F01FEF09F001C048F04F927A
:1011D0004F844F900E0E4D6E010E476EF40E466E0C
:1011E0004F86360E2C6E170E2D6E000E386E000ECA
:1011F000396E360E2E6E170E2F6E000E3A6E000EE2
:101200003B6E360E306E170E316E000E3C6E000EC9
:101210003D6E360E326E170E336E000E3E6E000EB1
:101220003F6E320E346E170E356E000E406E000E9D
:10123000416EA7EC0BF0D8EC0AF0000E026E0250E3
:1012400012004F8631EF09F07DEC0BF05EEF09F0F4
:1012500093EC0BF0030E5EEF09F079EC0BF05EEF10
:1012600009F038C00AF039C00BF002D842EF09F09B
:101270000500FA6E2C50FD6E2D50FE6EF850FF6E7C
:10128000FA5012000D6E0E6A0E50000AD8B44BEFE1
:1012900009F02DEF09F00D50010AD8B42DEF09F037
:1012A000030AD8B424EF09F0010AD8B424EF09F0F6
:1012B000070AD8B428EF09F02DEF09F012004F907B
:1012C000020E4E6E6CEF09F07DEC0BF093EF09F01F
:1012D00079EC0BF093EF09F03CC00AF03DC00BF045
:1012E00020EE30F002D87FEF09F00500FA6EDE50F4
:1012F000FD6EDE50FE6EF850FF6EFA5012000D6E5D
:101300000E6A0E50000AD8B488EF09F068EF09F0B1
:101310000D50020AD8B464EF09F0010AD8B464EFA2
:1013200009F068EF09F01200056E01500210D8B400
:101330009CEF09F09EEF09F0B4EF09F00550020DA3
:10134000F3502C0FD96EDA6A01C0DEFF02C0DDFF58
:101350000550020DF350380FD96EDA6A03C0DEFF74
:1013600004C0DDFFC6EF09F00550020DF3502C0F4D
:10137000D96EDA6A360EDE6E170EDD6E0550020D7E
:10138000F350380FD96EDA6ADE6ADD6A1200A7EC14
:101390000BF04FA0CEEF09F0D0EF09F0DCEF09F031
:1013A0001FEC0BF00009D8B4D8EF09F0DAEF09F020
:1013B000DCEF09F00F0E4D6E4D50020DF350010F92
:1013C0000F6E0FC0F6FF0F0EF76E02D8F4EF09F0A4
:1013D0000500FA6E0900F550FD6E0900F550FE6E2D
:1013E000F850FF6EFA5012004D6E1200106E010E92
:1013F000116E4FB2FEEF09F000EF0AF015EF0AF0A0
:101400004F82000E116E1050D8B409EF0AF00BEFA6
:101410000AF00FEF0AF0010E4D6E11EF0AF0020E06
:101420004D6EA1EC0BF0FAEC0AF01150120020EE18
:1014300002F00A50D9260B50DA22DF500C6E0CC095
:1014400001F0026A0AC0D9FF0BC0DAFFDECF03F059
:10145000DDCF04F0E9EC0AF0000E066E000E076E18
:10146000000E086E000E096E08EC0BF0020E120062
:10147000080EA76E900EAB6E240EAC6E080EAF6E0B
:10148000020E7D6E000E016E000E026E54EC0BF02B
:10149000000E016E000E026E4FEC0BF0000E016E9E
:1014A000000E026E59EC0BF0000E506E12000AC0D6
:1014B00001F00BC002F0000E046E010E036EE9ECA9
:1014C0000AF0000E066E000E076E000E086E000E8B
:1014D000096E08EC0BF0040E12000AC001F00BC0FC
:1014E00002F0000E046E020E036EE9EC0AF0000E2C
:1014F000066E000E076E000E086E000E096E08ECF8
:101500000BF0020E12000AC001F00BC002F0000E38
:10151000046E010E036EE9EC0AF0000E066E000E7A
:10152000076E000E086E000E096E08EC0BF0020E3E
:1015300012000AC001F00BC002F0000E046E020E91
:10154000036EE9EC0AF0000E066E000E076E000E48
:10155000086E000E096E08EC0BF0040E1200010E6E
:10156000016E4FB2B6EF0AF0B8EF0AF0C2EF0AF020
:101570004F944868A7EC0BF0A3EC0BF0A5EC0BF034
:101580004EC001F001501200000E896E000E8A6EEE
:10159000000E8B6ECF0E926E9368BF0E946E1F0E70
:1015A0000F015D6F070E5C6F000E5B6FF18E120016
:1015B000C6BADDEF0AF0DFEF0AF0E8EF0AF0000E3E
:1015C000C76E080EC66E000EC56EC70EC86EC68A00
:1015D00012004FA6EEEF0AF0F0EF0AF0F9EF0AF072
:1015E00001C049F002C04AF003C04BF004C04CF007
:1015F0004F96120000EF0BF032EC0BF0C7EC09F045
:101600004FB205EF0BF007EF0BF0FCEF0AF0120002
:1016100006C001F007C002F008C003F009C004F0E2
:10162000000E94EC09F0120000EE2CF0250EEE6A8C
:10163000E806FDE1000EF86E000191EF07F0C5BC71
:1016400024EF0BF027EF0BF0010E28EF0BF0000E4C
:101650001200600ED36E000ED26E000E9B6E000E56
:101660009A6E12009EA637EF0BF039EF0BF032EFB7
:101670000BF01200C4EC0AF029EC0BF038EC0AF085
:1016800012004F804850482489EC0BF0030E1200E2
:101690004F80D880483489EC0BF0050E120001C051
:1016A00053F002C054F0120001C055F002C056F0D1
:1016B000120001C051F002C052F012004F92000E11
:1016C0004E6E0E0E12004F9097EC0BF0040E1200AF
:1016D0004F92000E4E6E0E0E120090EC0BF0090EA3
:1016E000120090EC0BF00A0E12008DEC0BF0050EC0
:1016F00012009DEC0BF0000E12009FEC0BF0010E9F
:1017000012009FEC0BF0020E12009FEC0BF0010E8A
:101710001200016E01C0C9FF1200C59AC5881200EF
:10172000C58AC58812009E861200C9501200C5865F
:101730001200050E1200010E1200C5841200C582AF
:101740001200C58012009D961200C69A12009E9645
:02175000120085
:020000040020DA
:08000000FFFFFFFFFFFFFFFF00
:020000040030CA
:0E00000015027F50FF8991FF0FC00FE00F40E7
:00000001FF
